:020000040800F2
:10000000E0060020F5270008BD260008BF260008EE
:1000100000000000000000000000000000000000E0
:10002000000000000000000000000000C1260008E1
:100030000000000000000000C3260008C5260008DC
:100040006B0C00088F1000088B140008C314000804
:10005000CD2600080F1F00082F260008B72700082C
:1000600000000000CF260008C3270008052800086C
:1000700007280008092800080B2800080D28000898
:100080000F28000811280008132800081528000868
:100090000000000017280008D926000819280008C9
:1000A0001B280008E32600081D2800081F28000858
:1000B000212800082328000800000000000000009C
:1000C00010B5040001D1012010BD3D20205C0028A6
:1000D00004D13C216054200000F05CFDFFE70220C9
:1000E0003D216054211D206800F066FB012048215D
:1000F00060543E2160543F216054402160544121AE
:10010000605442216054432160544421605445218D
:10011000605446216054472160543D2160540020C2
:1001200010BD10B5040001D1012010BD3D20205CA0
:10013000002804D13C216054200000F095FDCEE75A
:10014000FEB504000E00002069460870002E01D1A3
:100150003E2010E0042E01D13F200CE0082E01D1FA
:10016000402008E00C2E01D1412004E0102E01D1E6
:10017000422000E04320205C02286DD0002E01D1F7
:100180003E2010E0042E01D13F200CE0082E01D1CA
:10019000402008E00C2E01D1412004E0102E01D1B6
:1001A000422000E04320205C012854D10192002A23
:1001B00051D068464380002B4DD091489149924AD6
:1001C00001250223002E02D13E27E35557E0042EDD
:1001D00015D13F27E355A36ADA62A26A1163A16AC7
:1001E000486368464388226838320199A06A00F063
:1001F0008FFD00282FD12068C168AA0256E0082E82
:1002000015D14027E355E36ADA62E26A1163E16AD5
:1002100048636846438822683C320199E06A00F0EE
:1002200077FD002817D12068C168EA023EE00C2E55
:1002300013D14127E355236BDA62226B1163216BE3
:10024000486368464388226840320199206B00F079
:100250005FFD002827D00120FEBD102E04D14220D2
:1002600023546846057051E04327E355330006D018
:10027000042EB0D0082EC6D00C2EDCD0F1E7636A75
:10028000DA62626A1163616A486368464388226879
:1002900034320199606A00F03BFD0028DBD1206810
:1002A000C1686A0202E02068C1682A030A43C2608A
:1002B00001223100206800F0F1FB216815488142DD
:1002C00005D0154A914202D0144A914203D14A6C9A
:1002D000EB0313434B642168814205D0A807814298
:1002E00002D04A4881420CD1896849480840062812
:1002F0000CD02904884209D0206800680543206892
:1003000003E0084600680543084605606846007833
:10031000FEBD0000002C01400044014000480140A7
:10032000F8B504000E000020694608700125300071
:1003300006D0042E37D0082E3CD00C2E41D047E0FA
:100340002068C168334A0A40C260606A00F027FD35
:1003500000223100206800F0A1FB22682E482F49BE
:100360002F4B9A4205D02F4B9A4202D02E4B9A42E5
:1003700009D1136A0B4006D1136A034003D1536CB1
:100380002A4F1F4057642268136A194007D1116A27
:10039000084004D110460068A84311460860002EAA
:1003A00019D13E2028E02068C168214A0A40C26075
:1003B000A06ACBE72068C1681E4A0A40C260E06AB2
:1003C000C4E72068C1681C4A0A40C260206BBDE7D0
:1003D0006846057011E0042E01D13F200CE0082E84
:1003E00001D1402008E00C2E01D1412004E0102E64
:1003F00001D1422000E04320255468460078F2BD38
:10040000D506000881070008210700080004004005
:1004100007000100FFFDFFFF440400001111000070
:10042000002C01400044014000480140FF7FFFFFD5
:10043000FFFBFFFFFFF7FFFFFFEFFFFFF8B5040033
:100440002068002502260169314015D0C16831407D
:1004500012D00221C94301610121217780698007FF
:1004600003D0200000F0A8FD05E0200000F0A5FD6D
:10047000200000F0E4FD2577206804270169394059
:1004800016D0C168394013D00421C94301612677D1
:100490008069C0218900014003D0200000F08CFD5C
:1004A00005E0200000F089FD200000F0C8FD257760
:1004B000206808260169314014D0C168314011D04C
:1004C0000821C94301612777C069800703D0200054
:1004D00000F072FD05E0200000F06FFD200000F04C
:1004E000AEFD25772068102102690A4016D0C26847
:1004F000114013D01021C94301612677C069C02182
:100500008900014003D0200000F056FD05E02000E6
:1005100000F053FD200000F092FD257720680121B6
:1005200002690A4008D0C268114005D00121C943C0
:100530000161200000F0A4FD2068802501692940A8
:1005400008D0C168294005D08021C943016120003D
:1005500000F097FD20680169C90507D5C1680D4005
:1005600004D05A490161200000F08CFD2068402130
:1005700002690A4008D0C268114005D04021C94331
:100580000161200000F07FFD2068202102690A40FF
:1005900008D0C268114005D02021C9430161200064
:1005A00000F072FDF1BD0000F1B582B000206B4695
:1005B000187002983C23C05C012801D10220FEBDC6
:1005C0000120029B3C2418550827414EC5020C000F
:1005D000002A0AD0042A18D0082A28D00C2A36D09B
:1005E000102A46D0142A54D065E00298006800F022
:1005F0001CF90298006881690F43876181690422B0
:1006000091438161816922690EE00298006800F0DF
:1006100040F90298006881690D43856181690E4047
:1006200086618169226912020A43826145E002986B
:10063000006800F05FF902980068C1690F43C76164
:10064000C16904229143C161C16922690EE0029827
:10065000006800F07EF902980068C1690D43C56129
:10066000C1690E40C661C169226912020A43C261B2
:1006700023E00298006800F099F902980068416D43
:100680000F434765416D042291434165416D2269E5
:100690000EE00298006800F0B1F902980068416D20
:1006A0000D434565416D0E404665416D226912025C
:1006B0000A43426501E069460870002002993C2225
:1006C000885468460078FEBD00000000FFFEFFFF72
:1006D000FFFBFFFF10B5846A0121626A904202D1DC
:1006E00021773E2015E0A26A904203D102202077B4
:1006F0003F200EE0E26A904203D1042020774020A0
:1007000007E0226B904203D108202077412000E0CF
:100710003D202154200000F0B8FC0020207710BDBF
:1007200010B5846A0121626A904205D12177C069BF
:1007300000281FD13E201CE0A26A904206D102226E
:100740002277C069002815D13F2012E0E26A90426A
:1007500006D104222277C06900280BD1402008E08E
:10076000226B904206D108222277C069002801D16D
:1007700041202154200000F062FC0020207710BDB1
:1007800010B5846A616A884201D101200DE0A16A36
:10079000884201D1022008E0E16A884201D10420A8
:1007A00003E0216B884201D108202077200000F06F
:1007B0006DFC0020207710BDF0B50668784A794BB3
:1007C0008024E405784DA84203D0A04201D098428D
:1007D00008D17027BE4337004E683E43A8420BD075
:1007E000A04209D0984207D0824B984204D0904250
:1007F00002D0954B984203D17F4B3340CE681E43C5
:1008000080239E434B69334303608B68C3620B684C
:100810008362A84204D0904202D08B4A904201D118
:100820000969016301214161F0BDF8B5026A012344
:100830009A430262036A42688469844D25400C68C9
:100840002C4300940224A3438C681C437E4B544DDC
:10085000554EB04203D0A84201D098420AD1082791
:10086000BC432700CC683C430427BC43B04203D0C0
:10087000A84201D0984205D15F4B13404D691D43FA
:100880008A692A434260009A82614968416304622E
:10089000F1BD70B5026A10239A430262026A43688E
:1008A00084696B4D25400C6824022C432025AA4303
:1008B0008D682D0115433C4A904208D18022954312
:1008C0002E00CA68150135434022954305E0344A9D
:1008D000904202D05C4A904206D1634A1A404B696A
:1008E0008E691E43B300134343608461496881638A
:1008F000056270BD70B5026A564B13400362046A0C
:100900004268C369514D1D400B682B43524D254031
:100910008C6824022C43244DA84207D14F4D25401A
:10092000CC6826022E434E4C344005E01C4DA842B4
:1009300002D0454DA84206D14C4D15404A698E69FA
:10094000164332012A434260C3614968C1630462AD
:1009500070BD30B5026A434B13400362036A4268BC
:10096000C4693B4D25400C6824022C43404D1D407A
:100970008B681B032B430C4DA84205D0084DA842A1
:1009800002D0314DA84204D13A4D15404A69920136
:100990002A434260C46149680164036230BD0000BB
:1009A0000044014000040040002C014070B5324A70
:1009B000036A13400362046A4368456D2F4E2E405C
:1009C0000D6835432E4E26408C68240434432D4E4A
:1009D000B04205D02C4EB04202D01B4EB04203D1E3
:1009E0001A404B691B0213434360456549688165A2
:1009F000046270BD00200040FFFCFFFF30B5026ABA
:100A0000224B13400362036A4268446D204D254027
:100A10000C6824022C431F4D1D408B681B052B4383
:100A2000184DA84205D0184DA84202D0064DA84244
:100A300004D1194D15404A6992022A434260446527
:100A40004968C165036230BD004801408CFFFEFF6C
:100A5000FF8CFFFEFFFEFFFFFFFDFFFFFFF7FFFF25
:100A6000FFFBFFFFFFEFFFFFFFF3FFFFFFCFFFFFE6
:100A7000FFDFFFFFFFBFFFFFFFFFFEFF8FFFFEFF58
:100A8000FFFFFDFF002C014000440140FFFFEFFF8E
:100A9000FF8FFFFEFFFFDFFFFFFFFBFF10B5C90663
:100AA000C90E036A01248C40A3430362036A8A408F
:100AB0001A43026210BD30B50168411844686208EB
:100AC0008A188368E40704D54C461B1901E0641CAE
:100AD00009D1914203D00C7864B2491C01E00C307A
:100AE00030BD0D78491C1D705B1C002CEFD4641EBA
:100AF000F7D5EEE780B55348012142680A434260CA
:100B000042681140009100998021490502680A431A
:100B1000026000680140009100980022002104203A
:100B200000F0D3FA042000F0D5FA01BD10B586B06C
:100B300004001422002101A800F0F2FA20684249C2
:100B4000884225D14148810CC2680A43C260C2680C
:100B5000114000910099012102680A430260006877
:100B60000140009100983A48019002200290002034
:100B700003900490059001A9A020C00500F0DAFAC6
:100B800000220021192000F0A0FA192000F0A2FA9A
:100B900006B010BD38B5040020682F4988422DD119
:100BA0008020C0022B490A6802430A600968084095
:100BB00000900098294D2A4828602F206860102056
:100BC000A8600020E86080212961890069618900AE
:100BD000A961E861C02080012862280000F046F881
:100BE000002801D000F04FFC6562AC6200220021B9
:100BF000162000F06AFA162000F06CFA31BD10B52C
:100C000086B004001422002101A800F089FA2068AF
:100C10001149884213D102200C490A6802430A6034
:100C200009680140009100990102019102900021A0
:100C300003910491059001A90A4800F07BFA06B0DF
:100C400010BD00003C100240003001403410024052
:100C500002100000401002400048014068020020DD
:100C600008000240000400507047FEE738B5040059
:100C700001D1012032BD206868494018142100F0DC
:100C800005FC800020640220252160542068006853
:100C9000634901402068016020680168A2680A4336
:100CA000E168114322690A4361691143A2690A4359
:100CB000E1691143226A0A430260200000F04BF907
:100CC0000025A0688021C901884200D16560207993
:100CD0008006800E616C0860E06CA16C4860606802
:100CE00000280AD0052808D2200000F049F9206D1C
:100CF0000560A06D616D486002E025656565A565CC
:100D0000E56301202521605424202554002032BDB4
:100D1000F2B50400002000262421615C012901D1E4
:100D20000220F2BD2100243101250D702527E75D49
:100D3000012F2ED102212527E155E06320680168AB
:100D4000A94301600099200000F0E6F82068216BBB
:100D50000029016801D00E2205E0042291430160C0
:100D6000206801680A220A430260616C28020A684E
:100D7000D20302D50A6802430A60216D002903D01C
:100D800009680843216D0860206801680D4305600B
:100D900003E08022E263087001263000F2BDF8B55E
:100DA0000021002401262522825C022A03D004218E
:100DB000C16301242EE0026813680E25AB43136063
:100DC00002681368B3431360436C524A1D681540B0
:100DD0001D60144B1D68AC464025475D1C253D40F9
:100DE0000127AF4065462F431F60C36C856C6B6065
:100DF000036D002B06D01B681A40036D1A60826DCC
:100E0000436D5A602522865424228154816B002927
:100E100000D088472000F2BD00000000F8FFFDBFB1
:100E20000F80FFFF04000240FEB55D490A68029290
:100E30000268136801934023C35C1C241C406B466A
:100E40001C7020230424029D6E4636780427B74088
:100E50002F4015D0019D254012D015682B4002D19E
:100E60001368A34313604A684023C35C1C251D40DC
:100E7000AC4014434C60016B002949D08847F7BD52
:100E800001240025029EB44602276E463678B740FC
:100E9000664637401BD00226019F374017D017689F
:100EA0003B4005D113680A27BB43136025228454B5
:100EB0004A684023C35C1C241C40A64016434E6075
:100EC00024214554C16A002922D08847F7BD082350
:100ED0006E4636780827B7406646374018D0019EE0
:100EE000334015D013680E26B34313604A6840237D
:100EF000C35C1C261E400123B34013434B60C463F4
:100F00002521445424214554416B002900D08847B1
:100F1000F7BD0000FFFEFFFFF0B5C46C856C6C6090
:100F2000046D002C02D0846D456D6C601D4C2668EC
:100F30004025475D1C253D400127AF4037432760D2
:100F4000046863608068102802D1A260E160F0BD8F
:100F5000A160E260F0BD10B50400206C032188435D
:100F600011494018606420780838142100F08EFA86
:100F70000E49A1640121C006C00E8140E16410BD8C
:100F800001798906890E8A00094BD2180265094A3F
:100F900042650122491E8907890F8A408265704790
:100FA00000000240040002400008024080080240A5
:100FB000FC080240400902407047704780B580211C
:100FC0000901A020C00500F066F9401E8041C00F55
:100FD00002BD10B5264CFFF7F1FF012802D1002019
:100FE000207502E0207D002805D1012221692148D9
:100FF00000F0ECFA0CE0607D002806D1012060755D
:101000000121206900F0E4FE02E0012000F03EFF33
:1010100000F050FFA168401AE06000F04BFFA060B4
:10102000206010BD10B50120114988752E240022C2
:101030000021002000F076FE641EF8D110BD80B5BE
:101040000021FFF76DF900200B49087001BD006811
:101050000A49884204D106480121017500214175E1
:1010600070470549087070470348007870470000D2
:10107000C402002050010020DC02002000300140AA
:101080007047704770477047704770477047FEE77A
:1010900010B5C20018231340FF249C40E243890787
:1010A000090E9940030004D419489B089B00C018FE
:1010B00006E0184B0007000F083880088000181859
:1010C00003681A401143016010BD80B5FFF7E0FFCF
:1010D00001BD0000010005D40121C006C00E814001
:1010E0000D480160704710B5401E802149048842B8
:1010F00001D3012010BD094C606003210020C043D2
:10110000FFF7C6FF0020A0600721216010BD00008E
:1011100000E400E01CED00E000E100E010E000E091
:1011200010B50400080011000200200000F0C8FE05
:10113000200010BDFFB500220F2302932CE00526EE
:1011400002E0584FB842FAD1AE402643009C2660D8
:10115000554C2568DC4325404E68F60200D51D43FA
:10116000514E3560756825404F68BF0200D51D435C
:1011700075604E4D6E6826404D68AD0300D51E4328
:101180004A4D6E602E6834404E68F60302D5260044
:101190001C0034432C60521C0B681C00D44079D0D6
:1011A000012595402B40F6D054000327A740FE436D
:1011B00001964E68B707BF0F012F03D0B607B60FD1
:1011C000022E0ED18768019E3E40CF68A74037436C
:1011D00087604668AE434D68EF06FF0F9740374380
:1011E00047600D79AD07AD0F032D25D0C568019E71
:1011F0002E408D68A5403543C5600D79AD07AD0F14
:10120000022D19D1D508AD0045192E6A0396970015
:101210001C263E406F463E70039EB446029F6E46BB
:101220003678B7406646BE43B4460F696E46367898
:10123000B740664637432F6207680326019D3D404D
:101240004F683740BC4627006446BC402C430460CE
:101250004C68350425409ED0154C9508AD006419A6
:101260000094009C2468D70018253D40029FAF40A1
:10127000BC43A027FF05B84201D1002664E70D4F0B
:10128000B84201D101265FE70B4FB84200D058E7C2
:10129000022659E7FFBD0069084000D00120C0B216
:1012A00070470000000C00500018024080180240F7
:1012B00060180240000400500008005070B594B05F
:1012C00000F026FE00F0A6F81422002101A8FFF786
:1012D00027FF02204B4D29680143296029680840F7
:1012E0000090009801262868304328602868304024
:1012F00000900098E80C019000240294039401A946
:10130000A020C005FFF716FF686830436860686872
:10131000064000960098002200210920FFF7D5FE24
:101320000920FFF7D7FE1C2200216846FFF7F8FED0
:101330003422002107A8FFF7F3FE334D33486866D7
:10134000AC66EC664F262E676C67AC67EC672800CE
:101350006430FEF7B5FE002801D000F094F82800B4
:101360006430FEF7DEFE002801D000F08CF860202B
:10137000009001960294039404200490FC300590A0
:1013800006940022694628006430FFF70DF9002812
:1013900001D000F078F80794089409940A940B940B
:1013A000802080010C900D94139407A928006430CC
:1013B00000F0C2FD002801D000F065F8280064307C
:1013C000FFF71DFC124828606C60000DA860E0204B
:1013D000C000E8602C616C6180208000A8612C62F4
:1013E0006C62AC620720E8622C636C63280000F03A
:1013F00069F8002801D000F046F8FFF713FEFFF768
:10140000E8FDFCE734100240500100200048014094
:101410000030014038B592B03822002104A8FFF70F
:101420007FFE102200216846FFF77AFE80208000B0
:1014300000F0E4FD02240494E001079000250895E3
:10144000402009900B940C940D9508200E90800379
:101450000F90000210900001119004A800F0F4FD1C
:10146000002801D000F00FF80720009001940295A9
:1014700003950221684600F0D3FF002801D000F058
:1014800002F813B030BD72B6FEE7FEE7094214D091
:1014900088420FD30122030C01D10004120400235F
:1014A00000185B418B4200D35B1A5241F8D31900FC
:1014B0001000704701000020704708B501F0B4F833
:1014C00008BDFEE7F8B5040001D10120F2BD822776
:1014D0007F000025606A002804D16068B84203D00C
:1014E000E56101E025616561A56226005C367078E2
:1014F000002803D135702000FFF718FB0220707020
:1015000020680168402291430160E368E022D20034
:10151000F0200001934203D90021834204D104E06A
:1015200080214901934200D0A562012263681F40D7
:10153000BC46A76884231B023B4067463B439C464E
:10154000277C02231F4063461F43636913403B43CC
:101550009C46A76953021F4063461F43BC46277F32
:1015600038233B4067463B439C462023E75C80236F
:101570001F4063461F43BC46A36A57033B40674670
:101580003B4327683B60A3691F0C04231F40BC46F4
:101590002423E35C10273B4067463B439C463423AF
:1015A000E75C08231F4063461F43E3681840384345
:1015B0000143206841602068C169034B0B40C3614F
:1015C000756072700020F2BDFFF7FFFFF2B50023D7
:1015D00000210400443404258668002E0BD146689F
:1015E00082277F00BE4206D165761300009A11461D
:1015F00000F052F8F2BD267E012E01D10220F2BD8C
:1016000001262676677E012F01D002213EE0009F51
:10161000002F01D0170001D1012137E06576E36189
:10162000009D056422806280836300228287C287D6
:10163000E3600268C568174EB542556804D3454E4D
:101640002E405660444A04E0802676012E435660C0
:10165000424AA260826880252D02AA4209D102680E
:1016600015684026B5431560026815683C4E2E404B
:1016700016600268556860262E4356600068402256
:101680000568154002D105682A43026023760800E8
:10169000F2BD000001070000F6B5002200210400A1
:1016A0004434257E012D01D10220F6BD0125257689
:1016B000657E012D0BD0466882277F00BE4204D193
:1016C0008668002E01D1042D01D002213CE0009D4E
:1016D000002D04D0019E002E01D01F0001D1012158
:1016E00032E0677E042F01D005276776E2618563CB
:1016F0008387C387066423806380C568144EB54220
:1017000004D3184BA360184BE36005E0174DA560A8
:10171000174DE560022B04D303685D680D4E2E4023
:1017200004E003685D68802676012E435E600368EE
:101730005D68E0262E435E600068402305681D401A
:1017400002D105682B43036022760800F6BD000035
:1017500001070000FFEFFFFFDD190008B3190008C3
:10176000FFBFFFFF4B1900087D19000897180008FC
:1017700001190008FEB504002068416800918168E5
:10178000402541220A40012A06D1009A2A4003D06E
:101790002000E16C8847F7BD8A0706D5009A12063B
:1017A00003D52000216D8847F7BDB02252000A40C2
:1017B00064D02022009B134060D0002329420DD02A
:1017C0005D26A65D032E4FD0266E0427374327667D
:1017D0000193C668019686680196019E01260A401B
:1017E0000BD0226E324322660193806801902068FC
:1017F0000068A843226810600198C80508D5206ECB
:1018000008210143216601932068806801900198B6
:10181000206E002832D020684168E0229143416068
:101820005D2026540098800725D020684168032257
:1018300091434160A06D124E002808D08663A06DD0
:10184000FFF7ADFA002802D0206E28432066606DB5
:10185000002813D08663606DFFF7A1FA00280DD031
:10186000206E05432566F7BD0093C168009180682E
:1018700000900098F7BD200000F0D7FEF7BD0000F3
:101880008518000880B5806A002146228152C187F0
:1018900000F0CBFE01BD80B5016C02684623C35A3F
:1018A000022B14D3D2680A80016C891C0164462182
:1018B000415A891E462281524621415A012910D19E
:1018C00001684A6880235B0113434B6009E0127B87
:1018D0000A70016C491C01644621415A491E462286
:1018E00081524621415A002909D101684A68602382
:1018F0009A434A60C18F002901D100F0C7F901BDA8
:1019000080B5816B0268C38F022B07D30988D16031
:10191000816B891C8163C18F891E06E00978117370
:10192000816B491C8163C18F491EC187C18F00290A
:101930000AD101684A6880239A434A604621415A85
:10194000002901D100F0A2F901BD0168C968026C4B
:101950001180016C891C01644621415A491E4622AE
:1019600081524621415A002900D0704780B5016854
:101970004A6840239A434A60C18F15E0816B098809
:101980000268D160816B891C8163C18F491EC18748
:10199000C18F002900D0704780B501684A68802354
:1019A0009A434A604621415A002901D100F06EF95C
:1019B00001BD0168097B026C1170016C491C016456
:1019C0004621415A491E462281524621415A002948
:1019D00000D0704780B500F081F901BD0168C96889
:1019E000026C1180016C891C01644621415A491E18
:1019F000462281524621415A002900D0704780B5C5
:101A000000F06CF901BDFEB582B006000A9C1D46CF
:101A100000F050FA281A071900F04CFA68490968D2
:101A20004901090D7943009100240125019006E048
:101A30000098002800D100270098401E00903068D0
:101A40008068029901400298814201D1012000E0A2
:101A500000206946097B884235D004980021C9439B
:101A60008842ECD000F026FA0199401AB84201D21F
:101A7000002FDDD130684168E022914341607068F9
:101A80008221490088420BD1B068E903884202D024
:101A90004909884204D130680168402291430160BD
:101AA0006803B16A814208D131680A68454B134026
:101AB0000B6031680A681043086030005C30457084
:101AC0000470032000E0002005B0F0BDFCB585B037
:101AD00007000E000C9D002400206946087006993E
:101AE000009100F0E7F90099081A4019009000F001
:101AF000E1F939680C31009A314B1B6823256B439F
:101B00001B0D5A4301923D000296059F009E0490D2
:101B1000039106E00198002800D100260198401E9C
:101B200001902868806802990140B94245D0029826
:101B3000C021C900884207D1002F05D10398007841
:101B4000694608706846007806980021C9438842B3
:101B5000E7D000F0AFF90499401AB04201D2002E4C
:101B6000D8D128684168E0229143416068688221A9
:101B7000490088420CD1A86880210902884202D01D
:101B80004909884204D128680168402291430160D4
:101B900080208001A96A814208D129680A68094B1E
:101BA00013400B6029680A681043086028005C3005
:101BB000012141700470032000E0002007B0F0BD57
:101BC0004C010020FFDFFFFFFEB5040080273F022D
:101BD000822676006068B0420AD1A068B84202D07E
:101BE0007B09984204D1206803684025AB43036019
:101BF00001920291202501980090029B00228021F1
:101C00002000FFF700FF002813D16068B04215D113
:101C1000A068B84202D0690188420FD101980090B3
:101C2000029B0022C021C9002000FFF74FFF0028BF
:101C300004D0206E054325660320FEBD0020FEBDB6
:101C4000F8B504000F001600202500963B00002286
:101C5000C0214901FFF73AFF002812D100963B004E
:101C6000002280212000FFF7CEFE002809D1009637
:101C70003B000022C021C9002000FFF727FF0028F9
:101C800003D0206E054325660320F2BD10B5040085
:101C900000F010F902002068416820239943416058
:101CA00064212000FFF7CCFF002803D0206E202104
:101CB000014321660120216E00290CD15D21615C68
:101CC000042902D15D21605424E05D21605420008C
:101CD00000F0ACFC10BD5D2160541FE010B50400A5
:101CE0002068416860229143416000F0E3F80200FF
:101CF00064212000FFF768FF002803D0206E202118
:101D00000143216601205D216054206E002800D12E
:101D100000E003E02000FFF79AF910BD200000F07A
:101D200084FC10BDF5B581B00D00534C002020702F
:101D3000082633200121231D2778BF00DB192F003F
:101D4000F7400F4001D0186001E01A271F60237888
:101D50005B1C2370761E3306EDD108261A25231D41
:101D60002778BF00DB196F463F79F7400F4001D05D
:101D7000186000E01D6023785B1C2370761E33061C
:101D8000EDD108236A46167A221D2778BF00D219A2
:101D90003700DF400F4001D0106000E0156022786E
:101DA000521C22705B1EDAB2002AEDD1201D217870
:101DB00089004250FFF758F90028FBD11923221D52
:101DC00000212E48FEF7BCF90120FFF74AF9F7BDC4
:101DD0007BB581B0002200210020FFF7A3FF002681
:101DE00003E0002200213FE0761C6846007A86422C
:101DF00040DA00252249019802784B5D9A4202D0D0
:101E00006D1C2D2DF9DB019000241E48690040183F
:101E100000900088E04003D00A220A211E2001E041
:101E200000220021FFF77EFF641C082CEDDB00245C
:101E30001548A9004058E040C00703D50A220A21EE
:101E40001E2002E0002200210020FFF76BFF641C2F
:101E50001D2CEDDB00240098008821000831C840CB
:101E6000BFD00A220A211E20FFF75CFF641C082C49
:101E7000F1DBB9E77FBD000000020020B4010020C3
:101E800000000020E40000203000002038B50500EC
:101E900000F010F804000020C043854202D004483E
:101EA00000782D1800F006F8001BA842FAD331BDC7
:101EB0004001002001484068704700BF40010020F9
:101EC0001206130A1A43130C1A4300BF094205D025
:101ED000830705D00270401C491EF9D170470000ED
:101EE0001300103906D330B41400150010393CC06B
:101EF000FCD230BC490700D30CC000D504C0890017
:101F000002D30280801C002900D502707047FEE7D2
:101F100010B5002407480168820D0A4302600320BF
:101F200000F086FB002801D0012401E0FEF7E2FD6D
:101F3000200010BD0020024010B53C22825C012A26
:101F400001D1022010BD01223C23C254CA68214B9A
:101F500013408A681A43204B13404A681A431F4BA8
:101F600013400A681A431E4B13400A691A43164B62
:101F700013404A691A431B4B13400A6B1A431A4C0D
:101F800014408A69130423430268104CA24214D1FE
:101F9000164C1C40CB6923430D4C1C408B6A1B051F
:101FA0002343134C1C400B6A2343124C1C404B6AC6
:101FB0002343114C1C40CB6A23435364FFE70021A9
:101FC0003C228154002010BDFFDFFFFF002C0140A8
:101FD000FFFF0FFFFFFCFFFFFFFBFFFFFFF7FFFF10
:101FE000FFEFFFFFFFBFFFFFFFFFF0FFFFFFFFEF70
:101FF000FFFFFFFEFFFFFFFDFFFFFFDF10B50E4CF1
:1020000021680E4A0A4002432260610D884210D1C5
:102010000B480068062148430A49FFF737FA401C7D
:1020200000E0401E6169490503D50028F9D103206D
:1020300010BD002010BD000000700040FFF9FFFF40
:102040004C01002040420F00FEB507001BD0A84CF9
:102050003878C00719D5A16838200840E168802584
:10206000AD02102808D18807800F032806D07968B0
:102070006808814234D13BE00828F8D12068054047
:1020800003D07868002800D1BEE1387880077BD57E
:10209000A06838210140E268A848A94D10294ED116
:1020A0009207920F022A4CD0F968002900D196E0DD
:1020B000216808403969014321602068A10D01436E
:1020C0002160FFF7F7FE3E0007002068400500D5BD
:1020D0007DE0FFF7EFFEC01B0328F6D30320FEBD13
:1020E000A022D202914207D1216882000A432260D5
:1020F00021680843206007E0206892490140216080
:102100002068914901402160786800280BD0FFF7D2
:10211000D1FE060020682840B7D1FFF7CBFE801B18
:102120006528F7D3DAE7FFF7C5FE060020682840E8
:10213000ABD0FFF7BFFE801B6528F7D3CEE70029A1
:10214000B2D12268520502D5FA68002A3ED06268F0
:1021500015407A6912022A43626000290ED1216873
:102160000840396901432160A8480121226892048E
:10217000520F9140FFF78AF9A5490860A548006809
:1021800000F056FA002821D10225387800070AD538
:10219000A06838210140182931D1206E284002D092
:1021A000B869002812D03878400700D4A9E0002090
:1021B0000190A06838210140202942D1E06D0540FE
:1021C00000D19EE0B868002800D09AE01CE1606869
:1021D000054070690002284360603700D4E720683A
:1021E0008D4901402160FFF765FE0500206840052C
:1021F000CAD5FFF75FFE401B0328F7D36EE7B86927
:102200000028206E0ED0012101432166FFF752FE07
:102210000600206E2840C6D1FFF74CFE801B032825
:10222000F7D35BE7012188432066FFF743FE0600F2
:10223000206E2840B7D0FFF73DFE801B0328F7D360
:102240004CE7E806E16B014008D1E16B0143E16333
:10225000E16B084000900098012001906F4D2868C4
:10226000C00512D4A00D0090286800990143296090
:10227000FFF720FE060028680099014005D1FFF70E
:1022800019FE801B0328F6D328E7B868012101282E
:1022900005D00528E06D06D104220243E265E06D19
:1022A0000143E16505E08843E065E06D0421884372
:1022B000E0650226B86800280CD0FFF7FBFD05009A
:1022C000E06D304016D1FFF7F5FD401BA84988426C
:1022D000F6D303E7FFF7EEFD0500E06D304009D0CF
:1022E000FFF7E8FD401BA2498842F6D3F6E600BF9F
:1022F000001002400198002803D0E06B9D49014086
:10230000E163F869002858D0A16838220A40102AF1
:1023100055D08026B6049849022820683BD1014058
:102320002160FFF7C7FD0500206830400ED0FFF7A1
:10233000C1FD401B0328F7D3D0E600BFFFC7FFFF56
:10234000FF80FFFFFFFFFEFFFFFFFBFFE0688B4901
:102350000140386A0843796A0143B86A00020843B9
:10236000F96A0143386B0843796B0143E1602068E7
:10237000710801432160E068F1000143E160FFF76B
:1023800099FD05002068304017D1FFF793FD401BF1
:102390000328F7D3A2E601402160FFF78BFD05007B
:1023A0002068304005D0FFF785FD401B0328F7D398
:1023B00094E6E06893490140E1600020FEBD0128F9
:1023C00022D0E0688107890F3A6A91421CD17021BE
:1023D00001407A6A914217D1FE21C9010140BA6ACF
:1023E0001202914210D1F82189030140FA6A914208
:1023F0000AD1E021090501403A6B914204D1400F16
:102400004007796B8842D8D00120FEBD0024F4003B
:102410004C01002048010020FFFEFFFF007000403B
:10242000F8B5070066D00091774800684007400F74
:10243000884218D2744C20680721884300990143D0
:102440002160FFF737FD009D060020684007400F20
:10245000A84207D0FFF72EFD801B45498842F4D3E0
:102460000320F2BD00953968694C022001420CD06E
:10247000490704D5A168E022D2010A43A260A168FD
:10248000624A0A40B9681143A1600725ED433978D3
:10249000C90732D57968012918D12068800329D568
:1024A000A06828400143A160FFF704FD3E0007003B
:1024B000A068382101407068C00081421CD0FFF73D
:1024C000F9FCC01B2A498842F2D3C9E7022902D18C
:1024D0002068800103E0002903D120684005DFD493
:1024E00008E0032903D1226E1040D9D102E0E26D49
:1024F0001040D5D10120F2BD37000098424909684B
:102500004907490F884217D23F48006805400098A4
:1025100028433D490860FFF7CDFC009D06003A487E
:1025200000684007400FA84206D0FFF7C3FC801B9D
:102530000F498842F3D393E73878400705D5A06860
:1025400034490140F8680843A06000F019F83249A6
:10255000A2681205120F9200895CC906C90EC84014
:102560002E4908602E48006800F062F8F2BD0000B5
:1025700089130000FFFFFFEFFFFFFFFE8C80C111FA
:1025800030B507212748224C3823A2681A4006D1CB
:1025900023680122DB0A19408A4011001EE042082C
:1025A000A5681D40082D01D1100030BDA5681D4053
:1025B000102D16D1E368E5682D092940491C7F25B7
:1025C0009B079B0F032B00D11000FEF75FFFE16814
:1025D000090A0D406843E168490F491CFEF756FFA0
:1025E00030BDA0681840202802D18020000230BDF4
:1025F000A0680340182B02D1FA20C00130BD002092
:1026000030BD0000FCFFFEEE00200240FFF0FFFFA7
:1026100000100240FF8FFFFF7C2600084C010020C5
:10262000480100200024F400704770477047FEE71F
:1026300070B5060000240F4D2978002916D0FA2025
:102640008000FEF723FF01000B480068FEF71EFF25
:10265000FEF749FD002809D1042E07D200223100DF
:102660000020C043FEF731FDAE6000E001242000F1
:1026700070BD00BF400100204C01002000000000A0
:10268000000000000000000000000000000000004A
:102690000000000000000000000000000100000039
:1026A000020000000300000004000000060000001B
:1026B000070000000800000009000000FEE7FEE738
:1026C0007047704780B500F017F801BD704780B5BE
:1026D0000648FEF7A9FB01BD80B50548FDF7AEFE33
:1026E00001BD80B50348FFF745F801BD6802002031
:1026F000B401002050010020024841680278891886
:10270000416070474001002070B40123002413E0B1
:102710000168001D194202D04D466918491E0C601F
:10272000091D121F042AFAD20D00960701D50C804C
:10273000AD1C1A4000D02C700268001D002AE7D1A1
:1027400070BC704710B5074979441831064C7C4479
:10275000163404E0081D0A68891888470100A14260
:10276000F8D110BD08000000240000009DFFFFFF0D
:102770009001000050010020000000003BE3FFFF3B
:10278000A6000000EE0000000000002000F00DF8A0
:10279000002801D0FFF7D6FF00BF00BF002000BF18
:1027A00000BFFEF78BFD00F002F80120704780B5F6
:1027B00000F002F801BDFEE70746384600F002F8D7
:1027C000FBE7FEE780B500BF00BF024A11001820FA
:1027D000ABBEFBE7260002000548014603B468468D
:1027E00080F3098800BF00BF00BF00BFFFF7CEFF26
:1027F000A5EDF5FE0148804701480047252800085F
:10280000D9270008FEE7FEE7FEE7FEE7FEE7FEE762
:10281000FEE7FEE7FEE7FEE7FEE7FEE7FEE7FEE790
:10282000FEE7FEE770472C00202128292B2D2E30B3
:102830003132333435363738393A414243444546EC
:102840004748494A4B4C4D4E4F50515253545556A0
:102850005758595AFD000001FD000002FD00000319
:10286000FD000004FD000005FD000006FD0000075E
:10287000FD000008FD0000098100EC0011010102CB
:10288000020303040405050606070708080909B63C
:0D289000000001F9000004FC000224F40027
:04000005080027D9EF
:00000001FF
