:020000040800F2
:10000000801E0020B92F0008B92E0008BB2E000862
:1000100000000000000000000000000000000000E0
:10002000000000000000000000000000890F000830
:1000300000000000000000004B0F0008BD2E00086B
:100040009F0A00086F1000083B1600083F160008C2
:100050008F1600080B240008672F0008732F000874
:1000600000000000D12E0008DD2F0008DF2F00085F
:10007000E12F0008E32F0008E52F0008E72F000814
:10008000E92F0008EB2F0008ED2F0008EF2F0008E4
:1000900000000000F12F0008F32F0008F52F0008E2
:1000A000F72F0008F92F0008FB2F0008FD2F00088C
:1000B000FF2F0008013000080000000000000000D1
:1000C00078B585B00B9D002D01D172B6FEE70C9C72
:1000D000002C01D172B6FEE75C260096009E5C2ED5
:1000E00001D072B6FEE7009E002C12D0002D10D079
:1000F000256302255926A55500250395029404ADD4
:1001000001950A9D009500F03BF8200000F086F86C
:1001100001E000200490049806B070BDF7B584B0EB
:1001200007001D001046800000F064FB06000AD0A6
:100130005C2000F05FFB040001D0266304E0300087
:1001400000F0BCFB00E00024002C14D02B0005992B
:100150003800002259256255039202940D9A0192AB
:100160000C9A00926A46128B00F00AF8200000F008
:1001700055F8012001E00020C04307B0F0BD0000A9
:10018000F9B581B00D0016000A9CA522B100206BC4
:1001900000F01CFC206BB10047183F1F072087436D
:1001A0003800400701D072B6FEE72800002500287D
:1001B00010D0290000E0491C102907D242181378FA
:1001C0002600343673541278002AF4D128004321D3
:1001D000605402E0280034216054089E372E00D974
:1001E0003726E662E6642565201D00F01BFC200032
:1001F000183000F017FC24613820801BA061646275
:10020000656558202554029A0199380000F048FC91
:1002100020600998002800D00460F7BD38B50400BC
:1002200000F076FC264DE86C401CE864A86A0028C3
:1002300006D1AC62E86C01280BD100F003FA08E0AB
:10024000A86D002805D1E06AA96AC96A884200D36E
:10025000AC62A86E401CA8666064E06A696D814269
:1002600000D26865211D174A8300181880001018F5
:1002700000F0DBFB00F056FCA86D002806D0A86A51
:10028000C06AE16A884201D200F038FC31BD00004A
:1002900010B504000020002C0DD00948406F002844
:1002A00001D072B6FEE700F047F80021200000F010
:1002B00073FA00F047F8002801D100F01FFC10BDD0
:1002C00074180020340C002038B586B00025059540
:1002D000049503AA04A905A800F05CFC434C05980A
:1002E000029004980190284600900346039A00BFAC
:1002F0000FA17048FFF7E4FE2067002801D001201D
:1003000000E02800012801D100F04EFC0021C94383
:10031000012808D172B6E1660120A065256500F0CC
:10032000D7FB07B030BD8842FBD172B6FEE70000B4
:1003300049444C45000000002D48416F491C41676D
:1003400070470000F8B5002635003700274C606F75
:10035000002801D172B6FEE700F0DAFB606F401EA4
:100360006067606F002839D1E06C00281DD135E04E
:10037000E068C5682800183000F07EFB281D00F0FA
:100380007BFBE86A616D814200D26065291D194AD4
:10039000830018188000101800F047FBE86AA16A73
:1003A000C96A884201D30120206620680028DFD175
:1003B000002D01D000F09DF9E56D002D08D000F072
:1003C0001BF8002801D0012020666D1EF7D1E665DC
:1003D000206E002802D0012700F090FB00F0A2FB65
:1003E0003800F2BD0248006D70470000741800200C
:1003F00074180020340C0020F8B50026884C606F7B
:10040000002851D1276D7F1C27650ED1E06A006856
:10041000002801D072B6FEE7E06A216BE16220633A
:10042000606E401C606600F064F9E06E87422AD37B
:1004300022E0E06AC068C5686868874232D3281D38
:1004400000F01AFBA86A002803D02800183000F03A
:1004500013FBE86A616D814200D26065291D784A0C
:10046000830018188000101800F0DFFAE86AA16A0B
:10047000C96A884200D30126E06A00680028D8D102
:100480000020C043E066A06A6D49C06A820010186F
:1004900080000858022800D30126206E002806D0CC
:1004A000012604E0E066EEE7E06D401CE065300008
:1004B000F2BD00002D06000810B45948416F002914
:1004C00002D0012101661DE000210166416D00E0BE
:1004D000491E5B4A8B005B189B00D2181368002BE7
:1004E00003D10029F4D172B6FEE753685B6853600C
:1004F00014000834A34201D15B6853605268D2688B
:100500008262416510BC704710B50C00002801D113
:1005100072B6FEE74249896A183100F092FA012169
:10052000200000F039F910BD38B50C00002801D1C9
:1005300072B6FEE715003A49896A183100F075FA7B
:100540002000002D01D00020C043290000F024F934
:1005500031BD000038B5C068C568002D01D172B644
:10056000FEE72800183000F087FA2D4C606F002855
:1005700010D1281D00F080FAE86A616D814200D236
:100580006065291D2E4A830018188000101800F09D
:100590004CFA04E029001831200000F046FAA06A65
:1005A000C06AE96A884202D20120206632BD00207A
:1005B00032BD00001A494A6E0260096D4160704701
:1005C000F8B50400002C01D172B6FEE70D00002D35
:1005D00001D172B6FEE700F09BFA114E326D6368EE
:1005E000D01A29680027FF43B94201D1002612E042
:1005F000766E2768BE4203D09A4201D301260AE0F4
:100600000026884205D2081A28602000FFF7D2FF92
:1006100001E02E60012600F085FA3000F2BD0000F6
:1006200074180020012059490866704780B500F011
:1006300030F8574800680228F9D300F05FFAF6E76F
:10064000340C002038B5002407E05148A1000919F6
:100650008900401800F0D7F9641C382CF5D34B4CB6
:100660002000783000F0CFF925008C35280000F00C
:10067000CAF9200000F0C7F92000143000F0C3F9D7
:100680002000383000F0BFF920007830E0622563A8
:1006900031BD38B53D4C11E000F03AFA206AC5682A
:1006A000281D00F0E9F9E06C401EE064606B401E1C
:1006B000606300F037FA280000F004F8606B00284F
:1006C000EAD131BD10B504005920205C002806D1C4
:1006D000206B00F0F3F8200000F0F0F810BD0128C6
:1006E00003D1200000F0EAF810BD0228F6D072B65F
:1006F000FEE72648C16A0968002903D10021C943E1
:10070000C1667047C16AC968C9684968C1667047EF
:100710002048816D002901D101207047406F0028D9
:1007200001D10220704700207047000038B5040056
:100730000020002C28D0154DA96A8C4201D072B639
:10074000FEE7216D002901D172B6FEE7491E216541
:10075000E26AE36C9A4217D0002915D1201D00F0FF
:100760008BF9E06CE0623821081AA061E06A696DDB
:10077000814200D26865211D054A83001818800057
:10078000101800F052F9012032BD0000741800204A
:10079000340C002074180020F8B504000E00144D2D
:1007A0002F6DA86A001D00F067F90020C043844245
:1007B00008D1002E06D0A86A011D2800383000F0AC
:1007C00034F9F1BD3C19A86A4460BC42A86A04D25D
:1007D000011D286B00F035F9F1BD011DE86A00F03C
:1007E00030F9E86E844200D2EC66F1BD00000000F2
:1007F00074180020F8B5060000242700FFF79CFDC0
:10080000694DA868002801D100F081F83000E9693D
:10081000014049D100280CD008300721084208D0F7
:10082000020008320840101A0140002901D072B6B7
:10083000FEE7002838D0E968814235D329002E68C8
:1008400001E0310016007268824202D23268002A4A
:10085000F7D1AA68964227D00A681700083732688D
:100860000A6071680A1A112A0BD331180B005B0752
:1008700001D072B6FEE7331D1A507060080000F018
:100880006BF87068E968091AE9602946C9682A4660
:100890001269914200D911002961E969014371602F
:1008A00034606869401C6861FFF74CFD3800400700
:1008B00001D072B6FEE73800F2BD0000002800D17A
:1008C000704738B5083804006068374DE9690A0098
:1008D0000240002A01D172B6FEE72368002B01D046
:1008E00072B6FEE7002A11D0002B0FD1884360605A
:1008F000FFF722FDE86861684018E860200000F01A
:100900002BF8A869401CA861FFF71CFD31BD10B48D
:10091000C0221201244803002033190004002034AF
:10092000640704D0C91D0724A143521AD2180160DC
:10093000002343608A18083A0724A2438260536068
:100940001360531A4B600A6049680161C1608021DD
:100950000906C16110BC704730B4134A110000E0B1
:1009600019000B688342FBD34B68CC18844203D137
:10097000406818184860080043680C68C518A5420C
:100980000BD19268944206D062689A1842600A6855
:100990001268026002E0026000E00460814200D060
:1009A000086030BC70470000140000201206130AD3
:1009B0001A43130C1A4300BF094205D083070BD01A
:1009C0000270401C491EF9D1704700001206130A3C
:1009D0001A43130C1A4300BF1300103906D330B466
:1009E0001400150010393CC0FCD230BC490700D3BC
:1009F0000CC000D504C0890002D30280801C0029ED
:100A000000D5027070470100083141600021C943E0
:100A1000816001000831C1600100083101610021DD
:100A20000160704700210161704742684A60936825
:100A30008B6093685960916008610168491C01608E
:100A4000704730B40A680023DB439A4201D103693E
:100A500007E00300083300E023005C682568AA4231
:100A6000FAD25A684A6091608B60596008610168E7
:100A7000491C016030BC70470169826843689A6014
:100A8000426883685A604A68824201D182684A603B
:100A9000002202610868401E086008687047FEE78F
:100AA00010B403000C3B802464049C6059603349FB
:100AB000196020380260203810BC70473048006848
:100AC0000021C943884201D072B6FEE772B6FEE744
:100AD00080B52C480168FF2212040A4302600168B5
:100AE000FF2212060A43026000F038F80020244971
:100AF000086000F04AFA002002BD00008020400596
:100B000021490860BFF34F8FBFF36F8F704700001C
:100B100072B61B480168491C0160BFF34F8FBFF3D9
:100B20006F8F704716480168002901D172B6FEE741
:100B3000491E0160002900D162B6704710B500F06F
:100B400035FA0400FFF758FC002803D08020400548
:100B50000D490860200000F02DFA10BD10B50B4CB7
:100B600000202060A0600A480068FA21890000F097
:100B700027FA401E60600720206010BDBD0A0008F3
:100B80000000002020ED00E004ED00E010E000E0B7
:100B900010000020034B036018005C3008608020C8
:100BA00010607047F014002070B586B00026350044
:100BB00000F098F9694CA068002817D005960496B3
:100BC00003AA04A905A800F053FA05980290049816
:100BD0000190022000902B46039A00BF07A16048B5
:100BE000FFF76EFAE060002800D00125002D01D14A
:100BF00072B6FEE7280006B070BD0000546D72208A
:100C0000537663007FB505000020002D01D172B638
:100C1000FEE7524CA668002E1CD00091019202956E
:100C2000062911DAFFF774FD022806D1089A00237D
:100C30006946A06800F0AAFA0CE000231A4669464B
:100C4000A06800F0A3FA05E01A00034669463000E8
:100C500000F03CFB04B070BD7CB505000E003F48C1
:100C60000068C068C468201DFFF706FF2820205CCC
:100C7000410714D532002B00A0692918200000F08C
:100C800071F800280FD00020009003462A0001468A
:100C90002000FFF7B7FF002805D172B6FEE7FE215E
:100CA0000140282021542000216A884773BD80B567
:100CB000684600F033F8009900F003F800F072F88D
:100CC000F6E77CB504000E00FFF736FB684600F03F
:100CD00032F80500009800281DD1320008D1A54245
:100CE00006D3FFF72FFB29002000FFF7B5FF73BDE8
:100CF0001A48002A04D0416809684A1E9241D20F5E
:100D0000611B806800F074FCFFF71CFB002804D115
:100D1000FFF7F4FE73BDFFF715FB73BD0F490968BC
:100D20000A68521E9241D20F026002D1C868006860
:100D300070470020704770B50400FFF753FB0500B3
:100D40007C4E3068854204D200F09EF8012020607D
:100D500001E0002020603560280070BD4C170020A5
:100D6000AF0C000810B50024416000618A420BD32B
:100D7000D11A8269914201D3012410E0011D6E480D
:100D80004068FFF75EFE0AE09A4203D2994201D31F
:100D9000012404E0011D68480068FFF752FE2000AE
:100DA00010BD000010B586B004E01300111820003B
:100DB000FFF7D8FF002202A95F48806800F0D8FA48
:100DC00000285ED00298002803D505990498039A5C
:100DD000904702980028EDD4049C6069002802D056
:100DE000201DFFF749FE01A8FFF7A5FF02000298AA
:100DF0000928DFD801A109568F4400BF0A0A0A78E2
:100E000050680A0A78502820205C012101432820DC
:100E10002154039BA06919182000FFF7A3FF0028A5
:100E2000C8D02000216A88472820205C4007C1D50F
:100E30000020009003460398A1694218194620003B
:100E4000FFF7E0FE0028B5D172B6FEE72820205C4F
:100E500001210143282021540398A0610028A4D136
:100E600072B6FEE72820205C800703D42000FFF73D
:100E700025FD9FE72820205CFE21014028202154E9
:100E800098E706B010BD00007CB52B4D05E0606012
:100E90002461211D2868FFF7D4FD28680168002916
:100EA0001CD0C0680668C468201DFFF7E5FD20005F
:100EB000216A88472820205C4007EED5A0693018B9
:100EC0008642E4D300200090034632000146200011
:100ED000FFF798FE0028E0D172B6FEE76968296046
:100EE000686073BD1CB5FFF713FE134CA0680028A3
:100EF0001DD120001030FFF786FD20002430FFF7C1
:100F000082FD20001030206020002430606000202E
:100F10000090230038332200883210210A2000F08C
:100F2000EDF8A060002802D004A100F04FFBFFF70D
:100F3000F9FD13BD781A00204C170020546D725132
:100F40000000000080F308887047EFF309801B4B16
:100F50001A6820381060F0C044464D4656465F4639
:100F6000F0C008B572B6FFF7A7FA62B60CBC1168FC
:100F700008681030F0C8A046A946B246BB4680F3C8
:100F800009882038F0C8184770470C4B1968086862
:100F9000203080F30988022080F31488BFF36F8F1C
:100FA0003FBCAE4608BC04BC62B61847EFF31080E5
:100FB00072B6704780F31088704700009C180020BC
:100FC0000022030A8B420BD203098B4219D2430839
:100FD0008B422ED2411A00D2014652411046704730
:100FE000FF2209023FD012068B4205D312120902DA
:100FF0008B4201D31212090203098B4219D300E07C
:10100000090AC3098B4201D3CB01C01A524183099B
:101010008B4201D38B01C01A524143098B4201D349
:101020004B01C01A524103098B4201D30B01C01A74
:101030005241C3088B4201D3CB00C01A52418308EE
:101040008B4201D38B00C01A524143088B4201D31B
:101050004B00C01A5241884200D3401A5241CFD2AD
:1010600001461046704708B500F0E8FA08BDFEE7F3
:10107000044B036018005C30086080204000106062
:10108000704700BF9410002038B505000C00002DFB
:1010900001D172B6FEE7FFF73BFD2868E96B2A6CC9
:1010A00051434018A8600020A86328686860286839
:1010B000E96B491E2A6C51434018E860280044300F
:1010C0000021C94301704170002C0BD12869002810
:1010D00010D028001030FFF73DFA00280AD0FFF7A3
:1010E0000DFD07E028001030FFF78DFC28002430AC
:1010F000FFF789FCFFF716FD012032BD7CB5002803
:1011000001D172B6FEE71C00002C01D172B6FEE7D9
:10111000002A05D00B005B1E9B41DB43DB0F00E088
:101120000123002B01D172B6FEE7002A04D10B0087
:101130005B1E9B41DB0F00E00123002B01D172B647
:10114000FEE750230093009B502B01D072B6FEE7C0
:10115000009B002C06D0069B01254626A555009431
:1011600000F002F8200076BD38B5049C002901D1BA
:10117000246000E022601D00E06321640121200062
:10118000FFF782FF4C20255431BD0000F6B583B037
:10119000040000273D00002C01D172B6FEE7029149
:1011A0000846002804D1206C401E8041C00F00E09A
:1011B0000120002801D172B6FEE71E00022E02D1E6
:1011C000E06B012801D1012000E03800002801D1A6
:1011D00072B6FEE7FFF79CFA002804D10498401E7F
:1011E0008041C00F00E00120002832D172B6FEE736
:1011F000049800284FD0002D03D16846FFF7DAF994
:101200000125FFF78FFCFFF797F8FFF781FC20001F
:1012100044300021C9434422A2568A4201D13A00F7
:101220000270012282568A4201D139004170FFF7D3
:1012300079FC04A96846FFF7C3F900283ED12000D5
:1012400000F0B5F900282AD1200000F06DF9FFF771
:1012500079F8FFF75DFCA06BE16B884201D3022EA9
:10126000C6D132000299200000F010F9616A00290D
:1012700008D020002430FFF76DF9002806D0FFF7D2
:101280003DFC03E0002801D0FFF738FCFFF74AFCE3
:10129000012005B0F0BDFFF745FC3846F9E7049999
:1012A00020001030FFF730F9200000F03DF9FFF783
:1012B00049F80028CDD1FFF721FCCAE7200000F053
:1012C00033F9FFF73FF83846E3E70000FEB50400C6
:1012D0001600002C01D172B6FEE7019108460028E5
:1012E00004D1206C401E8041C00F00E00120002886
:1012F00001D172B6FEE700931846022802D1E06BD6
:10130000012801D1012000E00020002801D172B69F
:10131000FEE7FFF74BFE0700A06BE16B884202D3AC
:10132000009802281ED145202556A06B009A0199ED
:10133000200000F0ABF80020C04385420DD1606A68
:1013400000280DD020002430FFF704F9002807D032
:10135000002E05D00120306002E06D1C4520255490
:10136000012400E000243800FFF724FE2000FEBD29
:10137000F7B5040000263500002C01D172B6FEE757
:101380000F0004D1206C401E8041C00F00E00120FE
:10139000002801D172B6FEE7FFF7BAF9002804D1A0
:1013A0000298401E8041C00F00E00120002806D1B5
:1013B00072B6FEE7200000F0B7F8FEF7C3FFFFF7B4
:1013C000A7FBA06B00283AD1029800284DD0002D31
:1013D00003D16846FFF7EEF80125FFF7A3FBFEF700
:1013E000ABFFFFF795FB200044300021C9434422A6
:1013F000A2568A4201D132000270012282568A42EC
:1014000001D131004170FFF78DFB02A96846FFF75B
:10141000D7F800282DD1200000F0BDF80028C9D051
:10142000029920002430FFF76FF8200000F07CF8CC
:10143000FEF788FF0028C2D1FFF760FBBFE7050079
:101440003900200000F05CF86D1EA56320690028BB
:1014500007D020001030FFF77DF8002801D0FFF7FB
:101460004DFBFFF75FFB0120FEBDFFF75BFB304646
:10147000FEBD200000F058F8FEF764FF200000F0E9
:101480008AF800289BD03046FEBD0000F8B5040065
:10149000100000263700A56B226C002A08D12068B6
:1014A000002829D1A068FFF741F90700A66023E0D2
:1014B00006000CD1606800F0DDF86068216C40180F
:1014C0006060A168884217D32068606014E0E0681B
:1014D00000F0D0F8E068216C4A428018E060216892
:1014E000884204D2A068216C4A428018E060022E33
:1014F00002D1002D00D06D1E6D1CA5633800F2BD19
:101500000B00016C002900D1704780B5C2685118EA
:10151000C1608268914201D30168C160026CC168F8
:10152000180000F0A7F801BDF8B50500FFF7F0FAC4
:101530002F00443701203C5608E028002430FFF7F4
:1015400009F8002801D0FFF76DF8641E200040B2B2
:10155000012802DB686A0028EFD10024E4437C7094
:10156000FFF7E0FAFFF7D4FA44202E5608E02800EF
:101570001030FEF7EFFF002801D0FFF753F8761E7A
:10158000300040B2012802DB28690028EFD13C700E
:10159000FFF7C8FAF1BD10B50400FFF7B9FAA06B68
:1015A000441EA441E40FFFF7BDFA200010BD10B5A2
:1015B0000400FFF7ADFAA06BE16B884201D1012472
:1015C00000E00024FFF7AEFA200010BD10B40022A6
:1015D00000E0521C082A07D2044BD4001B191C68D7
:1015E000002CF6D11960586010BC7047201A0020FA
:1015F00070B504000D001600FFF78AFA0020C04302
:1016000044216156814202D100214422A154452146
:101610006156814202D1002045216054FFF782FAD1
:10162000A06B002805D13200290020002430FEF7ED
:101630007BFF2000FFF778FF70BDFEE77047FEE7F5
:1016400070B4103A03D378C9103A78C0FBD253076C
:1016500001D318C918C001D508C908C0D20704D3DE
:101660000B880380891C801C002A01D50B7803702D
:1016700070BC70478B0701D18307E1D0124205D0BF
:101680000B78491C0370401C521EF9D17047FEE7CD
:10169000F8B5050000D1EEE1B04C2878C00712D5AE
:1016A000A16838200840E1688907890F102801D116
:1016B000032901D0082862D12068800303D5686817
:1016C000002800D1D7E12878800734D5A1683820D8
:1016D0000840E1688907890F102801D1022902D04A
:1016E000002800D088E02168490503D5E968002971
:1016F00000D1C0E16168BE4A0A406969090211432C
:101700006160002810D12068BA4901402869084367
:101710002060B94801212268D20A5207520F914035
:10172000FFF74EFCB5490860B548006800F0BCFA08
:10173000002800D09FE1287800070CD5A068382148
:101740000140182900D089E0206E800703D5A869E0
:10175000002800D18FE12878400700D406E1002757
:10176000A06838210140202900D09CE0E06D80076E
:1017700000D4FBE0A868002800D0F7E07BE16968AE
:1017800080204002814203D121680843206013E099
:10179000A022D202914207D1216882000A4322602E
:1017A00021680843206007E02068B44901402160B7
:1017B0002068B349014021608027BF026868002883
:1017C0000DD000F09BFA06002068384000D07AE780
:1017D00000F094FA801B6528F6D30320F2BD00F0D8
:1017E0008DFA06002068384000D16CE700F086FAD8
:1017F000801B6528F6D3F0E7270DE86800282068ED
:101800001CD07C4901402869084320602068A10D54
:101810000143216000F072FA06002068384005D1CB
:1018200000F06CFA801B0328F7D3D6E76068704994
:10183000014068690002084360607CE7914901400B
:10184000216000F05BFA06002068384000D172E7A2
:1018500000F054FA801B0328F6D3BEE70227A869DC
:101860000028206E0FD001210143216600F046FAC6
:101870000600206E384000D06DE700F03FFA801B74
:101880000328F6D3A9E701218843206600F036FA41
:101890000600206E384000D15DE700F02FFA801B73
:1018A0000328F6D399E780204005E16B014007D17A
:1018B000E16B0143E163E16B084000900098012770
:1018C00071480068C00512D46F480068A10D01433B
:1018D0006D48016000F012FA06006B480068C00510
:1018E00005D400F00BFA801B0328F6D375E7A8682F
:1018F000012804D1E06D01210143E16511E00528D3
:10190000E06D07D104210143E165E06D0121014350
:10191000E16506E001218843E065E06D042188432C
:10192000E065A86800280CD000F0E8F90600E06D3A
:10193000800715D400F0E2F9801BA8498842F6D34D
:101940004BE700F0DBF90600E06D800708D500F0FA
:10195000D5F9801BA1498842F6D33EE7001002402A
:10196000012F03D1E06B9E490140E163E869002843
:101970005AD0A16838220A40102A57D08027BF04C5
:101980009849022820683DD10140216000F0B6F955
:1019900006002068384005D000F0B0F9801B03280D
:1019A000F7D31AE7E06890490140286A0843696A5A
:1019B0000143A86A00020843E96A0143286B08430F
:1019C000696B0143E1602068790801432160E068A8
:1019D000F9000143E16000F091F90500206838400A
:1019E00022D100F08BF9401B0328F7D3F5E600BFA6
:1019F000FF80FFFFFFC7FFFF0024F400100000205E
:101A00000C0000200140216000F078F905002068FA
:101A1000384005D000F072F9401B0328F7D3DCE60C
:101A2000E06897490140E1600020F2BD012822D022
:101A3000E0688107890F2A6A91421CD17021014018
:101A40006A6A914217D1FE21C9010140AA6A1202B5
:101A5000914210D1F82189030140EA6A91420AD1EA
:101A6000E021090501402A6B914204D1400F400753
:101A7000696B8842D8D00120F2BD0000FFFFFEFF55
:101A8000FFFFFBFFFFFEFFFF00700040F8B50700FF
:101A900065D000917B4800684007400F884218D20B
:101AA000784C20680721884300990143216000F0A9
:101AB00025F9009D060020684007400FA84207D086
:101AC00000F01CF9801B45498842F4D30320F2BD85
:101AD000009539686D4C022001420CD0490704D5AD
:101AE000A168E022D2010A43A260A168664A0A40C6
:101AF000B9681143A1603978C90732D579680129DD
:101B000018D1206880032AD5A0680722904301439A
:101B1000A16000F0F3F80500A06838210140786862
:101B2000C00081421DD000F0E9F8401B2B498842DB
:101B3000F2D3CBE7022903D120688001E4D40EE080
:101B4000002903D120684005DED408E0032903D131
:101B5000226E1040D8D102E0E26D1040D4D10120B5
:101B6000F2BD0098474909684907490F884218D2D1
:101B700044480068072188430099014341480160B7
:101B800000F0BCF8009D06003E4800684007400F8A
:101B9000A84206D000F0B2F8801B10498842F3D367
:101BA00094E73878400705D5A06839490140F868BE
:101BB0000843A06000F01AF83649A268120A12071A
:101BC000120F9200895CC906C90EC84032490860EC
:101BD0003248006800F068F8F2BD00008913000088
:101BE000FFFFFFEFFFFFFFFE8C80C11130B5274CD8
:101BF0003820A168014009D101212068C00A4007AE
:101C0000400F81402648FFF7DBF930BDA168014055
:101C1000082901D1234830BDA168014010291FD1F6
:101C2000E0688007800FE16809094907490F491CEE
:101C30007F25032807D11B48FFF7C2F9E168090A8D
:101C40000D40684306E01648FFF7BAF9E168090A53
:101C50000D406843E168490F491CFFF7B1F930BDF9
:101C6000A1680140202902D18020000230BDA16876
:101C70000840182802D1FA20C00130BD002030BD34
:101C8000FCFFFEEE00200240FFF0FFFF00100240CC
:101C9000FF8FFFFF0C2E0008100000200C0000201A
:101CA0000024F40000127A0070B506000024114DE3
:101CB000297800291AD0FA208000FFF781F9010065
:101CC0000D480068FFF77CF900F068F800280BD198
:101CD000042E07D2224631000020C04300F056F8FF
:101CE000AE6004E0012402E0012400E001242000B1
:101CF00070BD00BF040000201000002001484068B3
:101D0000704700BF04000020010005D40121C00677
:101D1000C00E814023480160704710B4C2001823F0
:101D20001340FF249C40E2438901C9B2994003005B
:101D300008D41D489B089B00C01803681A40114333
:101D400001600AE0194B0007000F08388008800086
:101D5000181803681A401143016010BC704770B531
:101D6000401E040080256D04AC420AD2104E7460FF
:101D700003210020C043FFF7D0FF0020B060072000
:101D80003060AC428041C043C00F70BD80B5FFF7EA
:101D9000C4FF01BD80B5FFF7B7FF01BD80B5FFF7F8
:101DA000DEFF02BD00E100E000E400E01CED00E029
:101DB00010E000E010B5040001D1012010BD3D206D
:101DC000205C002805D100203C216054200000F058
:101DD000B3FA02203D216054211D206800F0E6F88E
:101DE0000120482160543E2160543F21605440212D
:101DF0006054412160544221605443216054442185
:101E000060544521605446216054472160543D216F
:101E10006054002010BD10B5040001D1012010BD98
:101E20003D20205C002805D100203C21605420008A
:101E300000F0E0FA02203D216054211D206800F0EE
:101E4000B5F80120482160543E2160543F21605480
:101E50004021605441216054422160544321605428
:101E60004421605445216054462160544721605408
:101E70003D216054002010BDF8B504000026370055
:101E80003C20205C012801D10220F2BD01203C232E
:101E9000E0540D00002A0AD0042A1BD0082A2ED0B4
:101EA0000C2A3FD0102A52D0142A63D077E0206841
:101EB00000F0BAF82068816908220A43826120682C
:101EC0008169042291438161206881692A690A43FA
:101ED000826165E0206800F0DCF82068816980227A
:101EE00012010A438261206881692F4A0A40826197
:101EF000206881692A6912020A43826150E02068E1
:101F000000F0FAF82068C16908220A43C26120681B
:101F1000C16904229143C1612068C1692A690A43E9
:101F2000C2613DE0206800F018F92068C169802294
:101F300012010A43C2612068C1691B4A0A40C2619A
:101F40002068C1692A6912020A43C26128E0206838
:101F500000F02EF92068416D08220A43426520688E
:101F6000416D0422914341652068416D2A690A430D
:101F7000426515E0206800F049F92068416D802233
:101F800012010A4342652068416D074A0A404265D2
:101F90002068416D2A6912020A43426500E0070089
:101FA0003C2026543800F2BDFFFBFFFF10B403684D
:101FB0007D4A904206D08024E405A04202D07B4CAA
:101FC000A04204D17024A3431C004B6823439042D9
:101FD0000FD08024E405A0420BD0744CA04208D05E
:101FE000864CA04205D0864CA04202D09B4CA04219
:101FF00003D1844C1C40CB6823438024A3434C6909
:102000001C4304608B68C3620B688362904205D0F6
:102010007B4A904202D0914A904201D10969016302
:102020000121416110BC704770B4026A01239A43D8
:102030000262046A42688369734D1D400B682B433A
:102040000225AC438D682543574CA04205D06C4E09
:10205000B04202D0814EB04206D10826B5432E00D0
:10206000CD6835430426B543A04205D0644CA04258
:1020700002D07A4CA04205D1624C14404E692643EE
:102080008A6932434260836149684163056270BC7A
:10209000704770B4026A10239A430262026A43686E
:1020A00084696F4D25400C6824022C432025AA43E7
:1020B0008D682D0115433C4EB04207D180229543D7
:1020C000CA6812012A43150040229543B04205D048
:1020D0004B4A904202D0614A904206D1654A1A406A
:1020E0004B698E691E43B3001343436084614968A2
:1020F0008163056270BC7047F0B4026A594B1340AB
:102100000362046A4268C3693F4D1D400B682B435C
:10211000554D25408C6826022E43234CA04206D103
:10212000524D3540CE6837022F43514E3E40A042BB
:1021300005D0334CA04202D0484CA04206D1514CAD
:1021400014404A698D6915432A0122434260C361E4
:102150004968C1630662F0BC704730B4026A464BFE
:1021600013400362036A4268C4693D4D25400C6810
:1021700024022C43414D1D408B681B032B430A4D09
:10218000A84205D01E4DA84202D0344DA84204D129
:102190003F4D15404A6992012A434260C461496833
:1021A0000164036230BC7047002C01400004004011
:1021B00070B4334A036A13400362046A4368456D8E
:1021C000314E2E400D683543304E26408C68240435
:1021D0003443304EB04205D0094EB04202D01F4EBB
:1021E000B04203D11A404B691B021343436045655B
:1021F00049688165046270BC70470000002000409F
:1022000000440140FFFCFFFF8CFFFEFF30B4026A78
:10221000214B13400362036A4268446D1F4D254001
:102220000C6824022C431E4D1D408B681B052B435C
:10223000184DA84205D01B4DA84202D0074DA84218
:1022400004D1194D15404A6992022A4342604465FF
:102250004968C165036230BC704700000048014016
:10226000FF8CFFFEFFFEFFFFFFFDFFFFFFF7FFFFFD
:10227000FFFBFFFFFFF3FFFFFFEFFFFFFFDFFFFFAE
:10228000FFFFFEFFFFCFFFFF8FFFFEFFFFFFFDFF02
:10229000FFBFFFFF002C0140FFFFEFFFFF8FFFFE9E
:1022A000FFFFDFFF00440140FFFFFBFF80B5484810
:1022B000012142680A43426042681140009100993E
:1022C0008021490502680A430260006801400091CC
:1022D0000098002203210120C043FFF757FD01BDF4
:1022E00010B586B004001422002101A800F083F884
:1022F0002068384988421DD13748810CC2680A439A
:10230000C260C268114000910099012102680A432D
:10231000026000680140009100983048019002205E
:102320000290002103910490059101A9A020C0050D
:1023300000F06CF806B010BD38B5040020682949DB
:10234000884222D18020800225490A6802430A601F
:102350000968084000900098234D244828602C20EC
:1023600068600020A860E86080212961803169618F
:102370008900A961E8612862280000F01BF90028A3
:1023800001D000F01DFB6562AC6231BD10B586B0B6
:1023900004001422002101A800F02DF82068114942
:1023A000884212D102200C490A6802430A60096877
:1023B000014000910099C1010191029003900490A5
:1023C000059001A90A4800F021F806B010BD0000F0
:1023D0003C1002400030014034100240021800005E
:1023E00040100240004401407819002008000240DB
:1023F00000040050704710B50400080011000200EE
:102400002000FEF7D3FA200010BDFEE7FFB4002243
:102410002DE0052303E0624B9842FAD12B006D4674
:102420002D78AB403343029D2B605E4D2E68E34315
:102430001E404F68FF0200D526432E606E681E4086
:102440004F68BF0200D526436E6080356E681E401F
:102450004F68BF0300D526436E602E6833404E6838
:10246000F60302D51E00230033432B60521C0D6877
:102470002B00D34000D191E001231C009440019433
:102480002C40F3D015006D006E463570032537786B
:102490002E00BE40F74302974E682F003740012FB1
:1024A00002D02E40022E13D18768029E3E40B446D1
:1024B000CF686E463678B7406646374387604668D1
:1024C000019FBE434F683F091F4097403743476015
:1024D0004E682E40032E0AD0C768029E3E40B44686
:1024E0008F686E463678B74066463743C7604E6899
:1024F0002E40022E1CD1D608B60086190396366AE5
:1025000001961600B7001C263E406F467E70019E65
:10251000B4460F276E467678B7406646BE43B4464B
:102520000F696E467678B74066463743039E37623A
:102530000768029E3E40B4464F682F406E4636788C
:10254000B7406646374307604E682F0437408DD04A
:10255000154E9708BF00F6190296029E366801963E
:102560001600F70018263E406F463E70019EB446A6
:102570000F276E463678B7406646BE43A027FF0554
:10258000B84201D100234AE7084FB84200D146E7DC
:10259000074B984200D03EE7022340E7FFBC70475C
:1025A000000C005000180240601802400004005067
:1025B0000008005038B5040001D1012032BD206868
:1025C000254940181421FEF7FBFC800020640220FE
:1025D0002521605420680168204A0A400260206872
:1025E0000168A2680A43E168114322690A436169EC
:1025F0001143A2690A43E1691143226A0A43026056
:10260000200000F099F80025A0688021C9018842C7
:1026100000D1656020798006800E616C0860E06CF6
:10262000A16C4860606800280AD0052808D2200004
:1026300000F097F8206D0560A06D616D486002E0C4
:1026400025656565A565E563012025216054242085
:102650002554284632BD0000F8FFFDBF0F80FFFF64
:10266000FEB548490A680192026813681C24056C8B
:1026700025406E4635700425019EB4466E46367878
:102680002F00B7406646374013D02B4211D0136855
:102690009B0603D413682E46B34313604A68036C49
:1026A0001C40A54015434D60016B002943D088476D
:1026B000F7BD02256E4636782F00B7406646374094
:1026C00019D02B4217D013689B0606D413680A262C
:1026D000B343136001222523C2544A68036C1C4093
:1026E000A54015434D60002124228154C16A002970
:1026F00021D08847F7BD08256E4636782F00B740B1
:102700006646374017D01D4015D013680E25AB43E1
:10271000136001224B68056C2C401500A5401D4339
:102720004D60C26325214254002124228154416B13
:10273000002900D08847F7BD10B50400206C0321A4
:102740008843114940186064207808381421FEF746
:1027500037FC0E49A1640121C006C00E8140E1642E
:1027600010BD01798906890E8A00094BD2180265CD
:10277000084A42650122491E8907890F8A408265FD
:10278000704700000000024000080240800802403C
:10279000FC0802404009024038B500F013F900F08F
:1027A0001CF800F0D0F800F0BBF800F04FF800F093
:1027B0006AF800F044F96E4D6E4C220000216E481C
:1027C00000F06EF928602200243200216B4800F0EE
:1027D00067F9686000F046F9FEE738B592B0382234
:1027E000002104A8FFF707FE102200216846FFF72A
:1027F00002FE8020800000F0C3F902240494E0016E
:10280000079000250895402009900B940C940D9595
:1028100008200E9080030F9000021090000111908C
:1028200004A8FEF735FF002801D000F0C9F8072002
:10283000009001940295039521466846FFF726F91A
:10284000002801D000F0BCF813B030BD80B54C4872
:102850004C490160002141608160E022D200C260E9
:102860000161416180229200826101624162816264
:102870000722C2620163416300F0A8F9002801D079
:1028800000F09EF801BD38B594B01C2200216846C6
:10289000FFF7B1FD3422002107A8FFF7ACFD3A4D48
:1028A0003A48286000246C60AC603948E8602C61CC
:1028B0006C61AC612800FFF77DFA002801D000F0C0
:1028C0007FF82800FFF7A7FA002801D000F078F879
:1028D000602000900194029403940494059406945B
:1028E000224669462800FFF7C7FA002801D000F009
:1028F00067F80794089409940A940B948020800147
:102900000C900D94139407A9280000F0E9F9002811
:1029100001D000F055F82800FFF738FD15B030BDA4
:1029200080B501201B490A6802430A600968084013
:1029300000900098002203210920FFF727FA0920C0
:10294000FFF728FA01BD81B0022013490A6802434B
:102950000A600A6810400090009801200A6802434B
:102960000A60096808400090009801B070470000B4
:102970006C1A0020C42D00089D290008B129000808
:102980001419002000300140D419002000440140F7
:10299000FFFF0000381002403410024080B500F004
:1029A00009FA0A2000F002FA012000F0DAF8F8E74C
:1029B00080B50A2000F0FFF9012000F0D2F8F8E716
:1029C00072B6FEE710B5002407480168820D0A437D
:1029D00002600320FFF768F9002801D0012401E01C
:1029E000FFF764FC200010BD0020024010B4C200BC
:1029F00018231340FF249C40E2438901C9B2994047
:102A0000030008D423489B089B00C01803681A40A1
:102A1000114301600AE0204B0007000F08388008CE
:102A20008000181803681A401143016010BC7047F9
:102A300080B500210420C043FFF7D8FF01BDEFF3AC
:102A40000580002802D00520C04370471348016864
:102A5000002903D101210160002070470020C043FC
:102A60007047000010B5EFF30580002802D0052064
:102A7000C04310BD094C2068012807D1FFF7D8FFDB
:102A800002202060FDF720FC002010BD0020C04384
:102A900010BD000000E400E01CED00E0741A00200E
:102AA000F0B587B000240394EFF30583002B55D1D4
:102AB0000690002852D0802005901820049400250C
:102AC000ED43002A2CD01368002B00D004939369A7
:102AD000002B00D01800002804D0392802D2137926
:102AE000DB0701D520463AE05369002B01D09E0850
:102AF00005969668002E09D0D7685C2F06D3176913
:102B0000002F03D0002B01D001250AE0002E08D1B0
:102B1000D368002B05D11369002B02D1250000E0FA
:102B200025000B00012D0BD19168029111690191D3
:102B30000090059A04990698FDF7C2FA03900DE0FB
:102B4000002D0BD103A901910090059A92B204992E
:102B50000698FDF7E3FA012800D00394039807B024
:102B6000F0BD10B5EFF30581002902D00524E44340
:102B700004E00024002801D0FDF78AFB200010BDEE
:102B800010B50E4C21680E4A0A4002432260610DC6
:102B9000884211D10B4800684100081840000A49DA
:102BA000FEF70EFA401C00E0401E6169490503D59E
:102BB0000028F9D1032010BD002010BD0070004096
:102BC000FFF9FFFF1000002040420F00F8B504009D
:102BD00001D10120F2BD0026606A002806D160689C
:102BE00082214900884203D0E66101E026616661E6
:102BF000A66225005C356878002804D13000287072
:102C00002000FFF76DFB02206870206801684022F9
:102C100091430160E268E023DB009A4201D9300071
:102C200001E080204001F02109018A4202D09A424D
:102C300000D0A6620122636882277F001F40BC4645
:102C4000A76884231B023B4067463B439C46277C86
:102C500002231F4063461F43636913403B439C4666
:102C6000A76953021F4063461F43BC46277F382392
:102C70003B4067463B439C462023E75C80231F4044
:102C800063461F43BC46A36A57033B4067463B432A
:102C900027683B60A3691F0C04231F40BC46242304
:102CA000E35C10273B4067463B439C463423E75C8C
:102CB00008231F4063461F43E36819403943130349
:102CC00018400843216848602068C169034B0B40E5
:102CD000C3616E606A703046F2BD0000FFF7FFFF0F
:102CE00030B43C22825C012A01D1022042E0012260
:102CF0003C23C254CA68234B13408A681A43224BB0
:102D000013404A681A43214B13400A681A43204B68
:102D100013400A691A43184B13404A691A431D4B62
:102D200013400A6B1A431C4B13408A6914041C435A
:102D30000268124B9A4203D1184D2540CC692C43AE
:102D40009A4212D10E4D25408C6A24052C43144D15
:102D500025400C6A2C43134D25404C6A2C439A4263
:102D600003D1114B2340CC6A1C43546400213C2204
:102D70008154084630BC7047FFDFFFFF002C014044
:102D8000FFFF0FFFFFFCFFFFFFFBFFFFFFF7FFFF52
:102D9000FFEFFFFFFFBFFFFFFFFFF0FFFFFFFFEFB2
:102DA000FFFFFFFEFFFFFFFDFFFFFFDF80B500F02D
:102DB00003F801BD704770470A2001494860704719
:102DC000601A0020C82F000800000000000000006A
:102DD00000000000000000000002000028000000C9
:102DE0000000000000000000D42F000800000000D8
:102DF00000000000000000000000000000020000D1
:102E000018000000000000000000000000000000AA
:102E100000000000000000000000000000000000B2
:102E200000000000000000000000000001000000A1
:102E30000200000003000000040000000600000083
:102E400007000000080000000900000070B4012322
:102E5000002413E00168001D194202D04D46691894
:102E6000491E0C60091D121F042AFAD20D00960794
:102E700001D50C80AD1C1A4000D02C700268001DDA
:102E8000002AE7D170BC704730B401220EE003681D
:102E9000C31844680830144202D04D462C19641EF1
:102EA0001D6825601B1D241D091FF9D10168001D27
:102EB0000029ECD130BC7047FEE7FEE780B500F09A
:102EC0000FF8FDF725FC012801D0FDF737FE01BD05
:102ED00080B50248FFF7C4FB01BD0000781900204F
:102EE0000248416802788918416070470400002058
:102EF00010B5074979441831064C7C44163404E077
:102F0000081D0A68891888470100A142F8D110BD40
:102F1000080000002800000035FFFFFF681A0000CD
:102F2000140000200000000061FFFFFF14000000FB
:102F300074000000000000200000000000F00DF808
:102F4000002801D0FFF7D4FF00BF00BF002000BF62
:102F500000BFFFF721FC00F002F80120704780B5A8
:102F600000F002F801BDFEE70746384600F002F81F
:102F7000FBE7FEE780B500BF00BF024A1100182042
:102F8000ABBEFBE7260002000548014603B46846D5
:102F900080F3098800BF00BF00BF00BFFFF7CEFF6E
:102FA000A5EDF5FEAAAAAAAA0100000000000000F3
:102FB000040000000024F400014880470148004755
:102FC00005300008892F00086D61696E5461736BCC
:102FD000000000007375625461736B00FEE7FEE74A
:102FE000FEE7FEE7FEE7FEE7FEE7FEE7FEE7FEE7B9
:102FF000FEE7FEE7FEE7FEE7FEE7FEE7FEE7FEE7A9
:06300000FEE7000070472E
:0400000508002F8937
:00000001FF
