:020000040800F2
:100000002805002031130008A1120008A3120008DF
:1000100000000000000000000000000000000000E0
:10002000000000000000000000000000A512000811
:100030000000000000000000A7120008A91200083C
:10004000770600080000000007070008FB12000800
:10005000071300085D1300085F1300086113000810
:100060000000000063130008B112000865130008C7
:1000700067130008691300086B13000800000000F4
:100080006D1300086F1300080000000071130008D2
:10009000731300087513000877130008791300081C
:1000A0007B1300087D1300087F13000881130008EC
:1000B00083130008F8B5040019D0B44D2078C007A8
:1000C00017D58027BF0268680C210140042909D098
:1000D00068680C210140082940D168687908084007
:1000E00088423BD12868074003D06068002800D1CF
:1000F0001FE12078800719D568680C21014007D0DE
:1001000068680C21014008295ED16868C0035BD48F
:100110002868800703D5E068012800D009E1286835
:10012000F82188432169C90001432960207800072C
:1001300074D5E0690028686A68D0012101436962CA
:1001400000F056FA0600686A800700D5F3E000F078
:100150004FFA801B0228F6D90320F2BD61680129FD
:1001600002D1286879080BE0BB48BC4A00290AD0B4
:10017000052908D128687900014329602868D143FE
:100180000143296005E029680A402A60296808407F
:100190002860606800280BD000F02AFA0600286862
:1001A0003840A6D100F024FA801B6528F7D3D3E7A6
:1001B00000F01EFA0600286838409AD000F018FABD
:1001C000801B6528F7D3C7E7E068002828680ED0B1
:1001D00001210143296000F00BFA0600286880071E
:1001E0009DD400F005FA801B0228F7D9B4E701215D
:1001F0008843286000F0FCF906002868800795D540
:1002000000F0F6F9801B0228F7D9A5E70121884301
:10021000686200F0EDF90600686A800700D48AE0A1
:1002200000F0E6F9801B0228F6D995E70420C043C8
:100230000122D24300290AD0052908D1286A0421C5
:1002400001432962286A01210143296205E0296AE4
:100250000A402A62296A08402862814FA068002863
:100260000CD000F0C5F90600286A800700D595E09B
:1002700000F0BEF9801BB842F6D36DE700F0B8F984
:100280000600286A800700D488E000F0B1F9801BDE
:10029000B842F6D360E700F0ABF9801B022800D823
:1002A00097E059E700F0A4F9801B022800D8AEE0DF
:1002B00052E70421C9438842686B03D10421884373
:1002C00068638AE0042101436963686B0121884304
:1002D000686300F08DF90600686B800767D500F051
:1002E00087F9801B0228F7D936E70140296000F022
:1002F0007FF904002868800100D4AAE000F078F9B2
:10030000001B0228F6D927E7012812D06868E96A9D
:10031000802252020240636A9A420AD10907090FF9
:10032000E26A914205D1F02189030140A06A81422D
:100330005BD00120F2BD2078400736D50020009028
:1003400080204005E969014008D1E9690143E9617C
:10035000E969084000900098012000908F480068EB
:10036000C00515D48D480068A90D01438B48016074
:1003700000F03EF9060089480068C00508D400F086
:1003800037F9801B6528F6D3E6E600BF001002406F
:10039000A168012900D049E7286A55E7009800289C
:1003A00003D0E8697E490140E9612078C0061AD58A
:1003B0006069F827FF43012800D07AE7686B0421C1
:1003C00001436963686B01210143696300F010F91F
:1003D0000600686B800700D45DE7686B0740A06982
:1003E000C00038436863206A002832D069680C2254
:1003F0000A40082A88D06B490228286800D074E790
:100400000140296000F0F4F806008027BF04286846
:10041000384000D046E7E86A0F218843E16A01438B
:10042000E962686860490140A06A0843616A014363
:100430006960286879080143296000F0D9F8040050
:100440002868384005D100F0D3F8001B0228F7D9FE
:1004500082E60020F2BD0000FFFFFBFFFFFFFEFF72
:1004600089130000F8B5040078D000914F48006867
:10047000C107C90F009881420CD24C480168012283
:100480009143009A0A4302600068C107C90F0098AF
:10049000814263D12168464D022001420CD04907B8
:1004A00004D56968E022D2000A436A606968F022D4
:1004B0009143A2680A436A600127216839403DD010
:1004C0006168012902D12868800303E0022903D171
:1004D0002868800103D441E02A6810403ED0686853
:1004E000032290430143696000F082F806006868C7
:1004F0000C2101406068800081421FD000F078F834
:10050000801B2C498842F2D30320F2BD207840079B
:1005100005D5686828490140E0680843686000F034
:100520001FF826496A681206120F895CC8402449E0
:100530000860032000F062F80020F2BD1B4800991B
:1005400002683A409142E1D20168B943009A0A43F5
:1005500002600068074000988742D7D00120F2BDB2
:10056000184B196818480C220A40082A00D0704716
:1005700030B50F2216A48D0C1540645D9B6AC9032B
:1005800007D500BF16A11A40895C00F059F86043F6
:1005900030BD20000D49484330BD000000700040D0
:1005A000FFFFFFEFFFFFFFFEFFFFC2FF0020024043
:1005B0000010024089130000FFF8FFFF201300081D
:1005C0000C0000200410024000127A0000093D00D7
:1005D00002030405060708090A0B0C0D0E0F101084
:1005E0000102030405060708090A0B0C0D0E0F1083
:1005F00001484068704700BF0000002038B5050082
:100600000D4CFA208000217800F01AF801000B4808
:10061000006800F015F800F059F800280AD1042D00
:1006200008D2002229000020C04300F042F8A56053
:10063000002032BD012032BD000000200C0000204F
:10064000094214D088420FD30122030C01D10004C7
:100650001204002300185B418B4200D35B1A524105
:10066000F8D319001000704701000020704708B54A
:1006700000F048F808BDFEE710B5C200182313408B
:10068000FF249C40E2438907090E9940030004D4EB
:1006900018489B089B00C01806E0174B0007000F86
:1006A000083880088000181803681A401143016058
:1006B00010BD80B5FFF7E0FF01BD010005D40121A9
:1006C000C006C00E81400D480160704710B5401E45
:1006D00080214904884201D3012010BD084C60608C
:1006E00003210020C043FFF7C7FF0020A0600721BF
:1006F000216010BD00E400E01CED00E000E100E03E
:1007000010E000E07047FEE7F8B500F03FF900F0B8
:1007100060F800F099F801278F48016839430160BB
:100720000068384000900098002200210A20FFF75E
:10073000C0FF0A20FFF7C1FF884C89482060894E1E
:1007400066600025A560E76025616561A561E561DA
:100750002562200000F02AF9002801D000F014F9E9
:100760000021200000F07CF9002801D000F00CF9F5
:100770000021200000F091F9002801D000F004F9D8
:1007800079486065A665E56527666566A566E566E0
:10079000256765672000543000F008F9002801D073
:1007A00000F0F2F800212000543000F059F9002840
:1007B00001D000F0E9F800212000543000F06DF97C
:1007C000002801D000F0E0F800F090F900F092F974
:1007D000FCE770B594B008A8302100F08FF96846A6
:1007E000102100F08BF904A8102100F087F90225F0
:1007F000089501200B9010240C941095002611965A
:10080000A02080031290139608A8FFF753FC00283D
:1008100001D000F0B9F807200090019502960396E8
:1008200001216846FFF71EFE002801D000F0ACF859
:1008300020200490079404A800F068F9002801D053
:1008400000F0A2F814B070BDF8B586B06846142167
:1008500000F054F9802109033F4802680A4302600E
:1008600002681140059105998021890202680A43B6
:10087000026002681140059105998021C903026850
:100880000A43026002681140059105998021C9025E
:1008900002680A43026002681140059105998021AF
:1008A000490302680A430260006801400591059807
:1008B0002E4C002221002E4800F060FA2D4F00221D
:1008C00039009020C00500F059FA0022F0212A4892
:1008D00000F054FA294E00223100294800F04EFA67
:1008E00000220421274800F049FA601C00900025EE
:1008F0000195029569461E4800F086F9009401248E
:100900000194029503946946194800F07DF9009717
:1009100001940295039469469020C00500F074F993
:10092000F02000900194029503946946124800F06B
:100930006BF900960194029503946946104800F003
:1009400063F90420009001940295039469460D48D0
:1009500000F05AF907B0F0BD14100240100000205A
:10096000005400405D3E302000580040FF1F000052
:1009700000080048FF9F0000001400483FF30000FB
:1009800000040048000C004872B6FEE780B5064837
:10099000016810220A4302600320FFF72FFE00F0D7
:1009A000FFF9002002BD00000020024070B50400E5
:1009B00001D1012070BD250040350026687800284F
:1009C00003D12E70200000F000FA24206870206807
:1009D000016801229143016060681E49014020685E
:1009E000016121681C488A6802408A60E168012927
:1009F000A16801D1C24301E0842212020A432168A6
:100A00008A60E168022903D18021090122685160CE
:100A100021684A68114B13434B602168CA68104033
:100A2000C860206961690143A06900020843216828
:100A3000C860E069216A014320680160206801689C
:100A400001220A4302606E60202068702663AE7047
:100A5000002070BDFFFFFFF0FF7FFFFF008000025E
:100A600070B5020040325378202B14D14023C35C70
:100A7000012B10D0012313702424547004682568BE
:100A80009D43256004682568164E2E402660046844
:100A9000256829431CE0022070BD70B50200403279
:100AA0005378202B12D14023C35C012B0ED001239D
:100AB000137024245470046825689D4325600468DD
:100AC0002568094E2E400902314301E0022070BD25
:100AD0002160006801680B430360202050700020F3
:100AE000107070BDFFEFFFFFFFF0FFFF80B500F05B
:100AF000DFF901BD80B500F0DBF901BD002200BFC8
:100B0000094202D0491E4254FCD17047F8B5070093
:100B1000374C3868C00357D500200090802040052E
:100B20002168014008D12168014321602168084003
:100B300000900098012000902E4E3068C00517D418
:100B40003068A10D01433160FFF752FD05003068A8
:100B5000C0050DD4FFF74CFD401B6528F7D30320DB
:100B6000F2BDFFF745FD401B234988421DD3F6E740
:100B7000C020800061680140204A1600002917D07B
:100B80007A681040814213D06068304061688022EA
:100B900052020A4362606168194A0A4062606060FA
:100BA000C00705D5FFF724FD050060688007D8D58C
:100BB000606806407868304360600098002803D081
:100BC00020681049014021603878C00705D5606968
:100BD00003218843B968014361613878800605D5EF
:100BE000606910218843F968014361610020F2BD0A
:100BF0001C1002400070004089130000FFFCFFFF42
:100C0000FFFFFEFFFFFFFFEFFFB50022032301936D
:100C10002AE0052403E05C4CA042FAD1019CB440D8
:100C20002C43029D2C60594DAE68DC4326404F6832
:100C3000FF0200D51E43AE60EE6826404F68BF023B
:100C400000D51E43EE606E6826404F68BF0300D596
:100C50001E436E602E6834404E68F60302D52600AF
:100C60001C0034432C60521C0B681C00D44000D183
:100C700083E0012595402B40F5D05400019FA7400B
:100C8000FE4302964E68019F3740012F03D0019F1B
:100C90003740022F0ED18768029E3E40CF68A740A2
:100CA000374387604668AE434D68EF06FF0F9740B5
:100CB0003743476095006E4675704D68019E2E4023
:100CC000032E26D0C568029E2E408D68A540354370
:100CD000C5604D68019E2E40022E1AD1D508AD0088
:100CE00045192E6A03966E4677781C263E406F465D
:100CF0003E70039EB4460F276E463678B740664670
:100D0000BE43B4460F696E463678B74066463743F1
:100D10002F620668029D35404E68019F3740A7400C
:100D20002F4307604C68C025AD0225409BD00124AD
:100D3000174D2D682543164E3560356825400295C0
:100D4000029D144D9608B600AD1902952D686E46A9
:100D500077780C263E400F27B740BD439027FF050C
:100D6000B84201D100245AE70B4FB842FBD00B4CDC
:100D7000A04200D04FE7022451E7FFBD002A01D076
:100D80008161704781627047000C00480004014097
:100D90001810024008000140000400480008004804
:100DA00081B001203B490A6802430A600A6810408A
:100DB00000900098802040054A6802434A604968D4
:100DC00008400090009801B07047F1B586B001A8C6
:100DD0001421FFF793FE069800680090012003217C
:100DE0000024122283042C4D009E2C4FBE4231D190
:100DF0002E681E432E602E6833400093009BC02354
:100E00000193029203940491059001A92448FFF7ED
:100E1000FBFE80208003A9680143A960A9680840FF
:100E2000009000981F4D204828606C60AC608020C6
:100E3000E8602C616C612020A861EC61280000F062
:100E400039F9002801D0FFF79FFD0698C563069881
:100E500068621CE0154FBE4219D12E681E432E60F9
:100E60002E6833400093009B8B02019302920394FF
:100E70000491059001A90A48FFF7C6FE8020C0032F
:100E8000A9680143A960A96808400090009807B0CC
:100E9000F0BD000018100240141002400054004041
:100EA00000040048B8000020300002400058004014
:100EB000F8B59025ED057A4C227801212800FFF73E
:100EC0005DFF627802212800FFF758FFA278042115
:100ED0002800FFF753FFE27808212800FFF74EFFB4
:100EE000227910212800FFF749FF6279202128008C
:100EF000FFF744FFA27940212800FFF73FFFE27986
:100F000080212800FFF73AFF227A8021490028003B
:100F1000FFF734FF627A802189002800FFF72EFF57
:100F2000A27A8021C9002800FFF728FFE27A8021F9
:100F300009012800FFF722FF80267601227B31007D
:100F40002800FFF71BFFF700627B39002800FFF73E
:100F500015FF544DA27B01212800FFF70FFFE27B14
:100F600002212800FFF70AFF227C04212800FFF756
:100F700005FF627C08212800FFF700FFA27C1021FA
:100F80002800FFF7FBFEE27C20212800FFF7F6FE99
:100F9000227D31092800FFF7F1FE627DF10828006B
:100FA000FFF7ECFEA27D31002800FFF7E7FEE27DAF
:100FB00071002800FFF7E2FE227EB1002800FFF753
:100FC000DDFE627E39002800FFF7D8FE364DA27E96
:100FD00001212800FFF7D2FEE27E02212800FFF760
:100FE000CDFE227F04212800FFF7C8FE627F082182
:100FF0002800FFF7C3FEA27F10212800FFF7BEFEE6
:10100000E27F20212800FFF7B9FE2020225C40214A
:101010002800FFF7B3FE2120225C80212800FFF783
:10102000ADFE2220225C31092800FFF7A7FE232015
:10103000225CF1082800FFF7A1FE2420225CB10801
:101040002800FFF79BFE2520225C71082800FFF78F
:1010500095FE2620225C31002800FFF78FFE272016
:10106000225C04211148FFF789FE114D2820225CE3
:1010700010212800FFF782FE2920225C2021280071
:10108000FFF77CFE2A20225C40212800FFF776FE35
:101090002B20225C80212800FFF770FEF1BD0000AC
:1010A000FC0000200004004800080048000C004834
:1010B0000014004810B5040001D1012010BD022029
:1010C00021216054206801680D4A0A40616811437B
:1010D000A2680A43E168114322690A436169114326
:1010E000A2690A43E16911430160200000F06AF837
:1010F0000020A06301212122A1542021605410BDB1
:101100000FC0FFFFFEB5C16B0968019101680A6855
:10111000009220220423019C056C0426AE40264048
:1011200011D0009C1C400ED00C68224002D10A68ED
:101130009A430A60016C8B40C16B4B60C16A002905
:101140003FD08847F7BD012302240025019EB44605
:10115000066C0227B7406646374016D0009E2640F0
:1011600013D00E68324005D10A680A26B2430A60DD
:1011700021214354016C8C40C16B4C6020214554AB
:10118000816A00291DD08847F7BD08226446066C95
:101190000827B740274014D0009C224011D00A688D
:1011A0000E24A2430A60016C01228A40C16B4A608E
:1011B00083632121435420214554016B002900D031
:1011C0008847F7BD10B50400206805494018142170
:1011D000FFF736FA800020640248E06310BD00008B
:1011E000F8FFFDBF0000024070B40123002413E0AB
:1011F0000168001D194202D04D466D1E49190C6050
:10120000091D121F042AFAD20D00960701D50C8081
:10121000AD1C1A4000D02C700268001D002AE7D1D6
:1012200070BC704730B401220168001D00290FD046
:101230000368C31844680830144202D04D466D1E3E
:1012400064191D6825601B1D241D091FECD0F8E7DB
:1012500030BC704710B5074979441831064C7C44BE
:10126000163404E0081D0A68891888470100A14265
:10127000F8D110BD08000000280000006DFFFFFF3E
:1012800018010000100000200000000099FFFFFF7F
:1012900010000000AC000000000000200000000072
:1012A000FEE7FEE77047704780B500F009F801BD22
:1012B00080B50248FFF726FF01BD0000B8000020FE
:1012C0000248416802788918416070470000002098
:1012D00000F00DF8002801D0FFF7BCFF00BF00BFF1
:1012E000002000BF00BFFFF70FFA00F002F8012056
:1012F000704780B500F002F801BDFEE707463846AA
:1013000000F002F8FBE7FEE780B500BF00BF024A2D
:1013100011001820ABBEFBE726000200704700005A
:101320000000000000000000010203040607080995
:1013300001488047014800471D1300085113000869
:1013400001000000000000000400000000127A000C
:1013500000BF00BF00BF00BFFFF7BAFFFEE7FEE718
:10136000FEE7FEE7FEE7FEE7FEE7FEE7FEE7FEE755
:10137000FEE7FEE7FEE7FEE7FEE7FEE7FEE7FEE745
:04138000FEE7FEE79F
:04000005080013518B
:00000001FF
